{
  "abi": [
    {
      "inputs": [
        {
          "components": [
            {
              "internalType": "address",
              "name": "pool",
              "type": "address"
            },
            {
              "internalType": "uint256",
              "name": "numX",
              "type": "uint256"
            },
            {
              "internalType": "uint256",
              "name": "numY",
              "type": "uint256"
            }
          ],
          "internalType": "struct TestTuples.Position",
          "name": "position",
          "type": "tuple"
        }
      ],
      "name": "tuplesTesting",
      "outputs": [
        {
          "internalType": "address",
          "name": "pool",
          "type": "address"
        },
        {
          "internalType": "uint256",
          "name": "count",
          "type": "uint256"
        }
      ],
      "stateMutability": "pure",
      "type": "function"
    }
  ],
  "bytecode": "608060405234801561001057600080fd5b5061015e806100206000396000f3fe608060405234801561001057600080fd5b506004361061002b5760003560e01c806366b127b814610030575b600080fd5b61004361003e366004610085565b610066565b604080516001600160a01b03909316835260208301919091520160405180910390f35b6000808260400151836020015161007d9190610101565b925193915050565b60006060828403121561009757600080fd5b6040516060810181811067ffffffffffffffff821117156100c857634e487b7160e01b600052604160045260246000fd5b60405282356001600160a01b03811681146100e257600080fd5b8152602083810135908201526040928301359281019290925250919050565b8082018082111561012257634e487b7160e01b600052601160045260246000fd5b9291505056fea2646970667358221220dc267c91eb5c36cd743170895ea7ae1c1cbdf15839dd0c23d8878ed10dde73d164736f6c63430008140033",
  "bytecodeSha1": "40189e87de86cf262ed471b310cfe82f2f1fc026",
  "compiler": {
    "evm_version": "istanbul",
    "optimizer": {
      "enabled": true,
      "runs": 200
    },
    "version": "0.8.20+commit.a1b79de6"
  },
  "contractName": "TestTuples",
  "language": "Solidity",
  "natspec": {
    "kind": "dev",
    "methods": {},
    "version": 1
  },
  "opcodes": "PUSH1 0x80 PUSH1 0x40 MSTORE CALLVALUE DUP1 ISZERO PUSH2 0x10 JUMPI PUSH1 0x0 DUP1 REVERT JUMPDEST POP PUSH1 0x4 CALLDATASIZE LT PUSH2 0x2B JUMPI PUSH1 0x0 CALLDATALOAD PUSH1 0xE0 SHR DUP1 PUSH4 0x66B127B8 EQ PUSH2 0x30 JUMPI JUMPDEST PUSH1 0x0 DUP1 REVERT JUMPDEST PUSH2 0x43 PUSH2 0x3E CALLDATASIZE PUSH1 0x4 PUSH2 0x85 JUMP JUMPDEST PUSH2 0x66 JUMP JUMPDEST PUSH1 0x40 DUP1 MLOAD PUSH1 0x1 PUSH1 0x1 PUSH1 0xA0 SHL SUB SWAP1 SWAP4 AND DUP4 MSTORE PUSH1 0x20 DUP4 ADD SWAP2 SWAP1 SWAP2 MSTORE ADD PUSH1 0x40 MLOAD DUP1 SWAP2 SUB SWAP1 RETURN JUMPDEST PUSH1 0x0 DUP1 DUP3 PUSH1 0x40 ADD MLOAD DUP4 PUSH1 0x20 ADD MLOAD PUSH2 0x7D SWAP2 SWAP1 PUSH2 0x101 JUMP JUMPDEST SWAP3 MLOAD SWAP4 SWAP2 POP POP JUMP JUMPDEST PUSH1 0x0 PUSH1 0x60 DUP3 DUP5 SUB SLT ISZERO PUSH2 0x97 JUMPI PUSH1 0x0 DUP1 REVERT JUMPDEST PUSH1 0x40 MLOAD PUSH1 0x60 DUP2 ADD DUP2 DUP2 LT PUSH8 0xFFFFFFFFFFFFFFFF DUP3 GT OR ISZERO PUSH2 0xC8 JUMPI PUSH4 0x4E487B71 PUSH1 0xE0 SHL PUSH1 0x0 MSTORE PUSH1 0x41 PUSH1 0x4 MSTORE PUSH1 0x24 PUSH1 0x0 REVERT JUMPDEST PUSH1 0x40 MSTORE DUP3 CALLDATALOAD PUSH1 0x1 PUSH1 0x1 PUSH1 0xA0 SHL SUB DUP2 AND DUP2 EQ PUSH2 0xE2 JUMPI PUSH1 0x0 DUP1 REVERT JUMPDEST DUP2 MSTORE PUSH1 0x20 DUP4 DUP2 ADD CALLDATALOAD SWAP1 DUP3 ADD MSTORE PUSH1 0x40 SWAP3 DUP4 ADD CALLDATALOAD SWAP3 DUP2 ADD SWAP3 SWAP1 SWAP3 MSTORE POP SWAP2 SWAP1 POP JUMP JUMPDEST DUP1 DUP3 ADD DUP1 DUP3 GT ISZERO PUSH2 0x122 JUMPI PUSH4 0x4E487B71 PUSH1 0xE0 SHL PUSH1 0x0 MSTORE PUSH1 0x11 PUSH1 0x4 MSTORE PUSH1 0x24 PUSH1 0x0 REVERT JUMPDEST SWAP3 SWAP2 POP POP JUMP INVALID LOG2 PUSH5 0x6970667358 0x22 SLT KECCAK256 0xDC 0x26 PUSH29 0x91EB5C36CD743170895EA7AE1C1CBDF15839DD0C23D8878ED10DDE73D1 PUSH5 0x736F6C6343 STOP ADDMOD EQ STOP CALLER ",
  "sha1": "b86eaec4d0726a3b6619866b4c7323498dfe1abe",
  "source": "// SPDX-License-Identifier: GPL-2.0-or-later\npragma solidity ^0.8.14;\n\ncontract TestTuples {\n    struct Position {\n        address pool;\n        uint256 numX;\n        uint256 numY;\n    }\n    function tuplesTesting(\n        Position memory position\n    ) public pure returns (address pool, uint256 count) {\n        count = position.numX + position.numY;\n        pool = position.pool;\n    }\n}\n",
  "sourcePath": "contracts/TestTuples.sol",
  "type": "contract"
}